:03000000020800F3
:0C080000787FE4F6D8FD758113020847EC
:0C0911000A08C0F9A4B0999282F8809006
:04091E0053800F22D1
:10088C00E4FFFEFD7480A805088002C313D8FCFCAD
:10089C00F45280ED70182080037FFF22208106AF78
:1008AC00063081FD222082037FFF220E80212080D2
:1008BC0006AF063080FD22208107EE04FF3081FD5B
:1008CC0022208208EE2402FF3082FD220E0E0EEC56
:0A08DC0042800DED640570AC7FFF53
:0108E60022EF
:1008E700E4FBFA12091E12088CEFF460F9EB20E022
:1008F7000774082FF8E6F590EB30E00774082FF837
:0A090700E6F5B00BBB00010A80DC2E
:10080C000208E7E493A3F8E493A34003F68001F213
:10081C0008DFF48029E493A3F85407240CC8C333ED
:10082C00C4540F4420C8834004F456800146F6DFBC
:10083C00E4800B0102040810204080900911E47E32
:10084C00019360BCA3FF543F30E509541FFEE493B1
:10085C00A360010ECF54C025E060A840B8E493A378
:10086C00FAE493A3F8E493A3C8C582C8CAC583CAA3
:10087C00F0A3C8C582C8CAC583CADFE9DEE780BE5B
:01091D0000D9
:00000001FF
